:020000040000fa
:080000000002040000000000f2
:020000040000fa
:0400080016030000db
:020000040000fa
:04000c005803000095
:020000040000fa
:04001000b803000031
:020000040000fa
:0400140036030000af
:020000040000fa
:040018007803000069
:020000040000fa
:04001c009803000045
:020000040000fa
:04002000d803000001
:020000040000fa
:04002400e60a0000e8
:020000040000fa
:04002800e60a0000e4
:020000040000fa
:04002c00e60a0000e0
:020000040000fa
:04003000e60a0000dc
:020000040000fa
:04003400e60a0000d8
:020000040000fa
:04003800e60a0000d4
:020000040000fa
:04003c00e60a0000d0
:020000040000fa
:04004000e60a0000cc
:020000040000fa
:040044006c0a000042
:020000040000fa
:04004800e60a0000c4
:020000040000fa
:04004c00e60a0000c0
:020000040000fa
:04005000e60a0000bc
:020000040000fa
:04005400660400003e
:020000040000fa
:04005800040400009c
:020000040000fa
:04005c00e60a0000b0
:020000040000fa
:04006000e60a0000ac
:020000040000fa
:04006400e60a0000a8
:020000040000fa
:04006800e60a0000a4
:020000040000fa
:04006c001c0800006c
:020000040000fa
:04007000e60a00009c
:020000040000fa
:04007400e60a000098
:020000040000fa
:04007800e60a000094
:020000040000fa
:04007c00e60a000090
:020000040000fa
:04008000e60a00008c
:020000040000fa
:04008400e60a000088
:020000040000fa
:04008800e60a000084
:020000040000fa
:04008c00e60a000080
:020000040000fa
:04009000e60a00007c
:020000040000fa
:04009400e60a000078
:020000040000fa
:04009800a20a0000b8
:020000040000fa
:04009c00e60a000070
:020000040000fa
:0400a0004a0500000d
:020000040000fa
:0400a400e80400006c
:020000040000fa
:0400a800e60a000064
:020000040000fa
:0400ac00e60a000060
:020000040000fa
:0400b000e60a00005c
:020000040000fa
:0400b400e60a000058
:020000040000fa
:0400b800e60a000054
:020000040000fa
:0400bc00e60a000050
:020000040000fa
:0400c000e60a00004c
:020000040000fa
:0400c400e60a000048
:020000040000fa
:0400c800e60a000044
:020000040000fa
:0400cc00e60a000040
:020000040000fa
:0400d000e60a00003c
:020000040000fa
:0400d400e60a000038
:020000040000fa
:0400d800e60a000034
:020000040000fa
:0400dc00e60a000030
:020000040000fa
:0400e000e60a00002c
:020000040000fa
:0400e400e60a000028
:020000040000fa
:0400e800e60a000024
:020000040000fa
:0400ec00e60a000020
:020000040000fa
:0400f000cc0500003b
:020000040000fa
:0400f400e60a000018
:020000040000fa
:0400f800e60a000014
:020000040000fa
:0400fc00e60a000010
:020000040000fa
:04010000e60a00000b
:020000040000fa
:04010400e60a000007
:020000040000fa
:04010800e60a000003
:020000040000fa
:04010c00e60a0000ff
:020000040000fa
:04011000e60a0000fb
:020000040000fa
:04011400e60a0000f7
:020000040000fa
:04011800e60a0000f3
:020000040000fa
:04011c00e60a0000ef
:020000040000fa
:04012000e60a0000eb
:020000040000fa
:04012400e60a0000e7
:020000040000fa
:04012800e60a0000e3
:020000040000fa
:04012c00d2040000f9
:020000040000fa
:04013000b605000010
:020000040000fa
:04013400e60a0000d7
:020000040000fa
:04013800e60a0000d3
:020000040000fa
:04013c00e60a0000cf
:020000040000fa
:04014000e60a0000cb
:020000040000fa
:04014400e60a0000c7
:020000040000fa
:04014800e60a0000c3
:020000040000fa
:04014c00e60a0000bf
:020000040000fa
:04015000e60a0000bb
:020000040000fa
:04015400e60a0000b7
:020000040000fa
:04015800e60a0000b3
:020000040000fa
:04015c00e60a0000af
:020000040000fa
:04016000e60a0000ab
:020000040000fa
:04016400e60a0000a7
:020000040000fa
:04016800e60a0000a3
:020000040000fa
:04016c00e60a00009f
:020000040000fa
:04017000e60a00009b
:020000040000fa
:04017400e60a000097
:020000040000fa
:04017800e60a000093
:020000040000fa
:04017c00e60a00008f
:020000040000fa
:04018000e60a00008b
:020000040000fa
:04018400e60a000087
:020000040000fa
:04018800e60a000083
:020000040000fa
:04018c00e60a00007f
:020000040000fa
:04019000e60a00007b
:020000040000fa
:04019400e60a000077
:020000040000fa
:04019800e60a000073
:020000040000fa
:04019c00e60a00006f
:020000040000fa
:0401a000e60a00006b
:020000040000fa
:0401a400e60a000067
:020000040000fa
:0401a800e60a000063
:020000040000fa
:0401ac00e60a00005f
:020000040000fa
:0401b000e60a00005b
:020000040000fa
:0401b400e60a000057
:020000040000fa
:0401b800e60a000053
:020000040000fa
:0401bc00e60a00004f
:020000040000fa
:0401c000e60a00004b
:020000040000fa
:0401c400e60a000047
:020000040000fa
:0401c800e60a000043
:020000040000fa
:0401cc00e60a00003f
:020000040000fa
:0401d000e60a00003b
:020000040000fa
:0401d400e60a000037
:020000040000fa
:0401d800e60a000033
:020000040000fa
:0401dc00e60a00002f
:020000040000fa
:0401e000e60a00002b
:020000040000fa
:0401e400e60a000027
:020000040000fa
:0401e800e60a000023
:020000040000fa
:0401ec00e60a00001f
:020000040000fa
:0401f000e60a00001b
:020000040000fa
:0401f400e60a000017
:020000040000fa
:0401f800e60a000013
:020000040000fa
:0401fc00e60a00000f
:020000040000fa
:04020000e60a00000a
:020000040000fa
:04020400e60a000006
:020000040000fa
:04020800e60a000002
:020000040000fa
:04020c00e60a0000fe
:020000040000fa
:04021000e60a0000fa
:020000040000fa
:04021400e60a0000f6
:020000040000fa
:04021800e60a0000f2
:020000040000fa
:04021c00e60a0000ee
:020000040000fa
:04022000e60a0000ea
:020000040000fa
:04022400e60a0000e6
:020000040000fa
:04022800e60a0000e2
:020000040000fa
:04022c00e60a0000de
:020000040000fa
:04023000e60a0000da
:020000040000fa
:04023400e60a0000d6
:020000040000fa
:04023800e60a0000d2
:020000040000fa
:04023c00e60a0000ce
:020000040000fa
:04024000e60a0000ca
:020000040000fa
:04024400e60a0000c6
:020000040000fa
:04024800e60a0000c2
:020000040000fa
:04024c00e60a0000be
:020000040000fa
:04025000e60a0000ba
:020000040000fa
:04025400e60a0000b6
:020000040000fa
:04025800e60a0000b2
:020000040000fa
:04025c00e60a0000ae
:020000040000fa
:04026000e60a0000aa
:020000040000fa
:04026400e60a0000a6
:020000040000fa
:04026800e60a0000a2
:020000040000fa
:04026c00e60a00009e
:020000040000fa
:04027000e60a00009a
:020000040000fa
:04027400e60a000096
:020000040000fa
:04027800e60a000092
:020000040000fa
:04027c00e60a00008e
:020000040000fa
:04028000e60a00008a
:020000040000fa
:100400004f0d21000eff27000e01880000000000a4
:10041000000020000000e000020032000001200087
:1004200020028800140007006a0407000000e000b2
:1004300003003a00e0c32100010020000200370061
:100440000000200001002000810f70000100320038
:100450000f000700000020000000e0000200320052
:100460000000020000000000d8140200000000009c
:100470000040da000000fe00200020000000e00044
:1004800002003200100020009001880000000600e9
:10049000a1028800800478000000eb001f003700f4
:1004a000e284440054a0b4009905ba00e2844400f8
:1004b00054a0b4009906ba00e284440054a0b400e9
:1004c0000006eb00476fde00fd07b200ae018800ba
:1004d000636ce10003003a000ad801000000eb0061
:1004e0000e003700606ce10008003a00004deb00a0
:1004f0000a05e800020039003420ec000af0a000f0
:100500008b05e900f9ff3e00040037006168e10057
:10051000010032000086eb000b00070019c7ba008b
:100520000e04e0001905ba0003003a000a00e000da
:10053000dbff3a0000000600fe07b200ae028800b2
:100540008a047800f5ff37000cd0a300e20f4d00bd
:100550001c00390089027800354dba000a05e80010
:10056000020039003420ec000af0a0008b05e900fd
:100570000f003200254dba000a05e80002003900dc
:100580003420ec000af0a0008b05e90008003200de
:100590000c00e0000600320015cdba000a05e800a4
:1005a000020039003420ec000af0a0008b05e900bd
:1005b0008984e80054a0b4000b00e000e2ff3a0098
:1005c000000006009902ba00055d78008b05e9007d
:1005d000f7ff3200c82ade00055d78008b05e900d0
:1005e000f3ff32000c00e000f1ff320019ddba0029
:1005f000eeff3700141d0400000000004c0b040047
:10060000000000006a0b0400000000005c0e040003
:10061000000000007a0e040000000000781a0400b8
:1006200000000000c0190400000000003600f800bf
:10063000809fbe00829fbe00849fbe00869fbe003a
:100640000000fa00c028a9000000eb00330d0700ed
:100650000080fa004f03be004f02be004f01be00f3
:100660004f00be003600f900004006003600f800da
:10067000809fbe00829fbe00849fbe00869fbe00fa
:100680000000fa002a0d0700c048a9001000200051
:10069000220d07000080fa004f03be004f02be008b
:1006a0004f01be004f00be003600f90000400600ba
:1006b0003600f800809fbe00829fbe00849fbe006f
:1006c000869fbe000000fa00c068a900200020003c
:1006d000120d07000080fa004f03be004f02be005b
:1006e0004f01be004f00be003600f900004006007a
:1006f0003600f800809fbe00829fbe00849fbe002f
:10070000869fbe000000fa00c088a90030002000cb
:10071000020d07000080fa004f03be004f02be002a
:100720004f01be004f00be003600f9000040060039
:100730003600f800809fbe00829fbe00849fbe00ee
:10074000869fbe000000fa00c0a8a900400020005b
:10075000f20c07000080fa004f03be004f02be00fb
:100760004f01be004f00be003600f90000400600f9
:100770003600f800809fbe00829fbe00849fbe00ae
:10078000869fbe000000fa00c608a9007000200085
:10079000e20c07000080fa004f03be004f02be00cb
:1007a0004f01be004f00be003600f90000400600b9
:1007b0003600f800809fbe00829fbe00849fbe006e
:1007c000869fbe000000fa00214680000002200043
:1007d000008060000000e00003003200c4a8a9000f
:1007e00090002000cd0c07002046800070006000c3
:1007f0000000e00003003200c488a900a00020002f
:10080000c60c0700ffff37003600f800809fbe00cf
:10081000829fbe00849fbe00869fbe000000fa003b
:10082000d08180000000e00002003200d081800012
:1008300000000100b1818000a0818000808f500005
:1008400002003a002188a900190037000188a90098
:1008500010003700b0818000904078008180fb005c
:10086000211188000000e800b0818800b18180007b
:10087000f0072100808f500002003a00600721003d
:10088000b0818800b1818000a0818000808f5000fd
:10089000060032001111800000202000008060005e
:1008a0000000e000ebff3200010037000000000014
:1008b0000080fa004f03be004f02be004f01be0091
:1008c0004f00be003600f900004006003600f80078
:1008d000809fbe00829fbe00849fbe00869fbe0098
:1008e0000000fa00e08180000000e0000200320019
:1008f000e0818000000001000168a9001e003700af
:1009000080818000311180008140780001487800aa
:100910008181800070082100808f50000900320022
:10092000808180008000e80090818000808f5000ee
:1009300004003200808180000000e800808188008f
:100940000d0037008181800070082100808f5000e9
:1009500007003a0091818000f0072100808f50004d
:1009600003003200f0072100808188000200370078
:1009700010c0b30038f0b7001011800061006000b3
:100980000000e000deff3a000080fa004f03be00e6
:100990004f02be004f01be004f00be003600f900fe
:1009a00000400600801f78000000fa00101180004f
:1009b000620060000000e000010032002222a90075
:1009c0000828a9000080fa004f00780000400600c7
:1009d0003600f800809fbe00829fbe00849fbe004c
:1009e000869fbe000000fa00408280000000e00008
:1009f000020032004082800000000100218280005d
:100a000010828000808f500002003a0023e8a90085
:100a10001900370003e8a900100037002082800089
:100a2000904078008180fb00a11188000000e80060
:100a3000208288002182800010092100808f5000d0
:100a400002003a0080082100208288002182800074
:100a500010828000808f50000600320091118000cb
:100a600000202000008060000000e000ebff32006a
:100a700001003700000000000080fa004f03be00b4
:100a80004f02be004f01be004f00be003600f9000d
:100a9000004006003600f800809fbe00829fbe0026
:100aa000849fbe00869fbe000000fa005082800036
:100ab0000000e000020032005082800000000100cf
:100ac00003c8a9001e003700f0818000b11180002a
:100ad0008140780001487800f18180009009210070
:100ae000808f500009003200f08180008000e80013
:100af00000828000808f500004003200f08180006e
:100b00000000e800f08188000d003700f1818000ce
:100b100090092100808f500007003a000182800078
:100b200010092100808f50000300320010092100bd
:100b3000f08188000200370010c0b30046f0b70013
:100b400090118000610060000000e000deff3a00cc
:100b50000080fa004f03be004f02be004f01be00ee
:100b60004f00be003600f90000400600801f7800ec
:100b70000000fa0090118000620060000000e000b8
:100b8000010032003222a9000848a9000080fa00c2
:100b90004f007800004006003600f800809fbe003d
:100ba000829fbe00849fbe00869fbe000000fa00a8
:100bb0000648a900c11080000008200000806000e5
:100bc0000000e0000800320018e2a9000830ef0041
:100bd00070808000200090008000eb000108780009
:100be0000e30ef000d013700408080008000eb00e8
:100bf000b200200003002000820f5000838f5800b5
:100c0000fc003e00000601000b00370039003700f1
:100c1000750037009c003700f3003700c80037002c
:100c2000d9003700f0003700db003700f100370053
:100c300034003700500037000000210020009000f1
:100c4000620060000000e000f3003a0000002100b4
:100c500010009000708088000000210010009000bb
:100c6000104078000af0b70000002100100090004a
:100c700010009000608088000000210010009000ab
:100c8000e600400000002100110098000000210053
:100c900090009000000a2100808f500003003a006d
:100ca00000002100a109210011009800000021008e
:100cb000a00090000100a100210098000000210088
:100cc000900090000000210010007800808f5000fc
:100cd00004003a0000002100a00090000110a000d4
:100ce000210098001602a800200020004080880003
:100cf000ca0037001622a80020002000408088008b
:100d0000c6003700c110800000002800008060008d
:100d10000000e00008003200000021006040900068
:100d20008040e80000002100614098004000200061
:100d300076050700b9003700808080008000d10070
:100d4000f00f2000008060009010880080808000fc
:100d500061006000004078000004e0000300320001
:100d6000b000200040808800ac0037003000200038
:100d700040808800a9003700c110800000002800d2
:100d8000008060000000e000080032000000210048
:100d9000604090008040e800000021006140980021
:100da00040002000590507009c0037001622a800cb
:100db000808080004800de00e6006000000f200018
:100dc0000100700080808800808080000000a0000a
:100dd0008080880010c0b30012f0b700200020000f
:100de000408088008d00370012d0bf00e14f5000d6
:100df0000a00320060808000100078008080880047
:100e00006080800020009000a080880060808000ca
:100e10002040900016f0b700010037001270ef007c
:100e200081808000f00f2000808f50000900360084
:100e3000808080004800de00e6006000000f200097
:100e40000100700090108800a00020004080880001
:100e500072003700808080009010880080808000c1
:100e600061006000004078000004e00003003200f0
:100e700050002000408088006800370030002000cb
:100e80004080880065003700c11080000000280005
:100e9000008060000000e000090032000000210036
:100ea000604090008040e800000021006140980010
:100eb00019e2a90050002000140507005700370070
:100ec00016d0bf008080fb008100e900cf08de0063
:100ed000814078000040e90016f0b7000104e0000e
:100ee0001000320060808000660040006080880052
:100ef0000ad0bf000040e9000af0b7000ad0bf00e6
:100f00000004e00003003a0020002000ff04070076
:100f1000420037001622a8002000200040808800f0
:100f20003e003700a0808000904078008180fb0068
:100f3000911088000000e800a0808800370037008a
:100f4000c110800000002800008060000000e00068
:100f50000900320000002100604090008040e8005d
:100f6000000021006140980040002000e7040700d5
:100f700019e2a900290037001662a80080002000ad
:100f800040808800250037008000200040808800d5
:100f90001662a80021003700a08080008110800028
:100fa00081407800014878000000e800a0808800b7
:100fb00016d0bf000040e90016f0b70016d0bf0001
:100fc0000004e0000400320016a2a9006000200026
:100fd000408088000200370016a2a800ba0407006b
:100fe0001682a8000d00370020002000c70407006b
:100ff0000a00370000002100604090008040e800b7
:10100000000021006140980060002000bf0407003c
:101010000000000001003700000000000080fa001e
:101020004f03be004f02be004f01be004f00be0086
:101030003600f900004006003600f800809fbe0030
:10104000829fbe00849fbe00869fbe000000fa0003
:101050000228a900411080000008200000806000e4
:101060000000e0000800320008e2a9002030ef0094
:1010700030818000200090008000eb0001087800a3
:101080002630ef000d013700008180008000eb006a
:10109000b200200003002000820f5000838f580010
:1010a000fc003e00000601000b003700390037004d
:1010b000750037009c003700f3003700c800370088
:1010c000d9003700f0003700db003700f1003700af
:1010d00034003700500037008001210020009000cc
:1010e000620060000000e000f3003a00800121008f
:1010f00010009000308188008001210010009000d5
:101100001040780022f0b70080012100100090000c
:1011100010009000208188008001210010009000c4
:10112000e6004000800121001100980080012100ac
:1011300090009000200b2100808f500003003a00a7
:1011400080012100c10a21001100980080012100c6
:10115000a00090000100a100210098008001210062
:10116000900090008001210010007800808f5000d6
:1011700004003a0080012100a00090000110a000ae
:10118000210098000602a8002000200000818800ad
:10119000ca0037000622a800200020000081880035
:1011a000c600370041108000000028000080600069
:1011b0000000e00008003200800121006040900043
:1011c0008040e8008001210061409800400020003c
:1011d0003c050700b9003700408180008000d10045
:1011e000f00f200000806000101088004081800017
:1011f00061006000004078000004e000030032005d
:10120000b000200000818800ac00370030002000d2
:1012100000818800a90037004110800000002800ec
:10122000008060000000e000080032008001210022
:10123000604090008040e8008001210061409800fb
:10124000400020001f0507009c0037000622a80070
:10125000408180004800de00e6006000000f2000b2
:101260000100700040818800408180000000a000e3
:101270004081880010c0b3002af0b7002000200091
:10128000008188008d0037002ad0bf00e14f500058
:101290000a00320020818000100078004081880020
:1012a00020818000200090006081880020818000e3
:1012b000204090002ef0b700010037002a70ef00a8
:1012c00041818000f00f2000808f5000090036001f
:1012d000408180004800de00e6006000000f200032
:1012e0000100700010108800a0002000008188001c
:1012f000720037004081800010108800408180001b
:1013000061006000004078000004e000030032004b
:101310005000200000818800680037003000200065
:10132000008188006500370041108000000028001f
:10133000008060000000e000090032008001210010
:10134000604090008040e8008001210061409800ea
:1013500009e2a90050002000da0407005700370016
:101360002ed0bf008080fb008100e900cf08de00a6
:10137000814078000040e9002ef0b7000104e00051
:10138000100032002081800066004000208188002b
:1013900022d0bf000040e90022f0b70022d0bf00f9
:1013a0000004e00003003a0020002000c50407000c
:1013b000420037000622a80020002000008188009b
:1013c0003e00370060818000904078008180fb0003
:1013d000111088000000e8006081880037003700a5
:1013e0004110800000002800008060000000e00044
:1013f0000900320080012100604090008040e80038
:10140000800121006140980040002000ad040700e9
:1014100009e2a900290037000662a8008000200028
:1014200000818800250037008000200000818800ae
:101430000662a80021003700608180000110800052
:1014400081407800014878000000e8006081880051
:101450002ed0bf000040e9002ef0b7002ed0bf0014
:101460000004e0000400320006a2a9006000200091
:10147000008188000200370006a2a800800407004f
:101480000682a8000d003700200020008d04070010
:101490000a00370080012100604090008040e80091
:1014a0008001210061409800600020008504070051
:1014b0000000000001003700000000000080fa007a
:1014c0004f03be004f02be004f01be004f00be00e2
:1014d0003600f900004006003600f800809fbe008c
:1014e000829fbe00849fbe00869fbe000000fa005f
:1014f000a08280000000e00002003200a082800094
:1015000000000100f00c2100104078008040e8004d
:10151000f00c210001487800e00c210011c0b3005c
:101520000148780000e8a9000080fa004f03be00df
:101530004f02be004f01be004f00be003600f90052
:10154000004006003600f800809fbe00829fbe006b
:10155000849fbe00869fbe000000fa00708280005b
:101560000000e8007082880070828000e50f500063
:1015700006003600608280000000e00002003200b9
:1015800060828000000001004e30ef00100d21004d
:10159000104078008040e800100d210001487800dc
:1015a000000d210011c0b300014878000388a90094
:1015b0000080fa004f03be004f02be004f01be0084
:1015c0004f00be003600f900004006000040da007f
:0815d0000000fe000000050010
:020000040000fa
:1015d8003f0600005b4f0000666d00007d070000bd
:1015e8007f6f0000777c0000395e00007971000091
:0815f8007638000040000000fd
:020000040000fa
:101600000000fa002188a9002168a90080002000bc
:10161000001188002222ef00a0282000401188003d
:1016200060072100b081880060072100a081880048
:10163000f007210090818800f00721008081880058
:101640003870ef00c0b4200007000700a0b62000eb
:10165000140007002168a80021e2a8002342a80086
:101660000080fa00000006000200fa00000f780077
:101670001e0078000000e00003003a00c0b4200023
:10168000d0818800020037009e007800d181880058
:101690000080fa00000006000000fa000080fa0056
:1016a000000006000200fa00000f78001e0078001b
:1016b0000000e00003003a00a0b62000e0818800ae
:1016c000020037009e007800e18188000080fa0067
:1016d000000006000000fa000080fa00000006008a
:1016e0000200fa000040eb00004f7800000000000c
:1016f0009181800080818000808f5000fcff32004b
:1017000090818000104f7800908180000000e800f8
:10171000908188009181800080082100808f500096
:1017200002003a00f0072100908188001e407800f6
:101730000080fa00000006000200fa00004f780066
:10174000000000001c0007000004a2000004e000ec
:10175000fcff3a00a08180001e487800a081800034
:101760000000e800a0818800a1818000f00721002e
:10177000808f500002003a0060072100a08188009d
:101780002188a8000080fa00000006000000fa008e
:1017900091818000808180000080680000f0a700b7
:1017a0000000ea000000ea004f00de000040780080
:1017b0000080fa00000006000400fa00b1818000f9
:1017c00011079800a18180001e009000808f5000ba
:1017d000060031009e009000a08180000080500033
:1017e0000000e900000f7800050037009e0090001f
:1017f000a08180000080500068004000000f780049
:101800001e00780000f0a7000000ea000000ea00d7
:101810004f00de00004078000080fa000000060063
:101820000000fa00a1818000b0818000808f50000c
:1018300009003a00111180000010200000806000b3
:1018400000f0a7000000ea000000ea004f00de0000
:1018500000407800010037000040eb000080fa00f3
:10186000000006000400fa00818180001107980042
:10187000908180009e009000808f50000600310013
:101880009e00900090818000008050006900400020
:10189000000f7800040037009e00900090818000c7
:1018a00000805000000f7800f00f20009e007800ac
:1018b000808f50000200360000c0eb0002003700ad
:1018c0001e007800004078000080fa00000006004a
:1018d0000400fa00b181800011079800a181800006
:1018e0001e009000808f5000060031009e00900086
:1018f000a0818000008050000000e900000f780007
:10190000050037009e009000a081800000805000fc
:1019100068004000000f7800f00f20009e00780063
:10192000808f50000200360000c0eb00020037003c
:101930001e007800004078000080fa0000000600d9
:101940000800fa002007980031079800c5ff07003b
:101950000080fb00000f78003e0090009e0f5000ba
:1019600002003100be009000010f78000000eb0083
:10197000100798000900370059ff0700ae009000db
:10198000804878002e0090000000e80020079800b2
:101990001e0090000000e800100798001e00900054
:1019a0009e0f5000f4ff39001e0078000080fa00fe
:1019b000000006000800fa00200798003107980090
:1019c000c3ff07000080fb00000f78003e0090007e
:1019d0009e0f500002003100be009000010f780001
:1019e0000000eb0010079800090037002e0090005f
:1019f00010407800ae0090008100e80021079800b8
:101a00004dff07001e0090000000e800100798003e
:101a10001e0090009e0f5000f4ff39001e00780059
:101a20000080fa00000006000400fa000000eb004d
:101a3000000f78008bff070020479800a4ff0700e5
:101a4000304798002e4090000080fb000000e0002e
:101a500003003200e90f5000030032000400370099
:101a60001e20a000040037001e00a0000200370066
:101a70001e10a000000000003e4090000080fb000f
:101a80000000e00003003200e90f500003003200c4
:101a9000040037001e30a000020037001e40a000e6
:101aa000000000001e0078000080fa000000060020
:101ab0000400fa0010079800918180001e00900039
:101ac000008f4000020037009e007800698f5000b0
:101ad000800821009e007800808f5000faff3e00b1
:101ae0001e007800104078000080fa000000060018
:101af0000000fa005bff07000080fb000000e90027
:101b00004f00de00004078000080fa000000060070
:101b10000000fa006eff07000080fb000000e900f3
:101b20004f00de00004078000080fa000000060050
:101b30000000fa00101180000080fa00000006008a
:101b40000000fa0062ff07000004e000100032000d
:101b5000b1818000a0818000808f50000600360097
:101b6000b081800080007800a0818000008050005b
:101b70000000e90007003700b08180008000780095
:101b8000a081800000805000680040000100370004
:101b90000000eb000080fa00000006000000fa00e0
:101ba00030ff07000004e000100032009181800047
:101bb00080818000808f5000060036009081800078
:101bc0008000780080818000008050000000e900e3
:101bd00007003700908180008000780080818000bd
:101be0000080500068004000010037000000eb005a
:101bf0000080fa00000006000000fa0021e2a800c0
:101c00002342a8000080fa00000006000000fa004d
:101c100021e2a9002342a9000080fa00000006008a
:101c20000000fa0023e8a90023c8a90080002000d2
:101c3000801188003222ef00a0282000c011880007
:101c400080082100208288008008210010828800fe
:101c5000100921000082880010092100f08188000d
:101c60004670ef00c0e5200007000700a0e7200055
:101c70001400070023c8a80031e2a8003342a800de
:101c80000080fa00000006000200fa00000f780051
:101c90001e0078000000e00003003a00c0e52000cc
:101ca00040828800020037009e0078004182880050
:101cb0000080fa00000006000000fa000080fa0030
:101cc000000006000200fa00000f78001e007800f5
:101cd0000000e00003003a00a0e7200050828800e6
:101ce000020037009e007800518288000080fa00d0
:101cf000000006000000fa000080fa000000060064
:101d00000200fa000040eb00004f780000000000e5
:101d100001828000f0818000808f5000fcff320043
:101d200000828000104f7800008280000000e800f0
:101d30000082880001828000a0092100808f50006d
:101d400002003a0010092100008288001e4078003d
:101d50000080fa00000006000200fa00004f780040
:101d6000000000001c0007000004a2000004e000c6
:101d7000fcff3a00108280001e487800108280002c
:101d80000000e80010828800118280001009210004
:101d9000808f500002003a008008210010828800e5
:101da00023e8a8000080fa00000006000000fa0006
:101db00001828000f08180000080680000f0a700b0
:101dc0000000ea000000ea004f00de00004078005a
:101dd0000080fa00000006000400fa002182800062
:101de00011079800118280001e009000808f500023
:101df000060031009e00900010828000008050009c
:101e00000000e900000f7800050037009e009000f8
:101e1000108280000080500068004000000f7800b1
:101e20001e00780000f0a7000000ea000000ea00b1
:101e30004f00de00004078000080fa00000006003d
:101e40000000fa001182800020828000808f500004
:101e500009003a009111800000102000008060000d
:101e600000f0a7000000ea000000ea004f00de00da
:101e700000407800010037000040eb000080fa00cd
:101e8000000006000400fa00f181800011079800ac
:101e9000008280009e009000808f5000060031007c
:101ea0009e00900000828000008050006900400089
:101eb000000f7800040037009e0090000082800030
:101ec00000805000000f7800f00f20009e00780086
:101ed000808f50000200360000c0eb000200370087
:101ee0001e007800004078000080fa000000060024
:101ef0000400fa00218280001107980011828000fe
:101f00001e009000808f5000060031009e0090005f
:101f100010828000008050000000e900000f78006f
:101f2000050037009e009000108280000080500065
:101f300068004000000f7800f00f20009e0078003d
:101f4000808f50000200360000c0eb000200370016
:101f50001e007800004078000080fa0000000600b3
:101f60000800fa002007980031079800c5ff070015
:101f70000080fb00000f78003e0090009e0f500094
:101f800002003100be009000010f78000000eb005d
:101f9000100798000900370059ff0700ae009000b5
:101fa000804878002e0090000000e800200798008c
:101fb0001e0090000000e800100798001e0090002e
:101fc0009e0f5000f4ff39001e0078000080fa00d8
:101fd000000006000800fa0020079800310798006a
:101fe000c3ff07000080fb00000f78003e00900058
:101ff0009e0f500002003100be009000010f7800db
:102000000000eb0010079800090037002e00900038
:1020100010407800ae0090008100e8002107980091
:102020004dff07001e0090000000e8001007980018
:102030001e0090009e0f5000f4ff39001e00780033
:102040000080fa00000006000400fa000000eb0027
:10205000000f78008bff070020479800a4ff0700bf
:10206000304798002e4090000080fb000000e00008
:1020700003003200e90f5000030032000400370073
:102080001e20a000040037001e00a0000200370040
:102090001e10a000000000003e4090000080fb00e9
:1020a0000000e00003003200e90f5000030032009e
:1020b000040037001e30a000020037001e40a000c0
:1020c000000000001e0078000080fa0000000600fa
:1020d0000400fa0010079800018280001e009000a2
:1020e000008f4000020037009e007800698f50008a
:1020f000a00921009e007800808f5000faff3e006a
:102100001e007800104078000080fa0000000600f1
:102110000000fa005bff07000080fb000000e90000
:102120004f00de00004078000080fa00000006004a
:102130000000fa006eff07000080fb000000e900cd
:102140004f00de00004078000080fa00000006002a
:102150000000fa00901180000080fa0000000600e4
:102160000000fa0062ff07000004e00010003200e7
:102170002182800010828000808f5000060036008f
:102180002082800080007800108280000080500053
:102190000000e900070037002082800080007800fe
:1021a000108280000080500068004000010037006d
:1021b0000000eb000080fa00000006000000fa00ba
:1021c00030ff07000004e0001000320001828000b0
:1021d000f0818000808f5000060036000082800071
:1021e00080007800f0818000008050000000e9004d
:1021f000070037000082800080007800f0818000b6
:102200000080500068004000010037000000eb0033
:102210000080fa00000006000000fa0031e2a80089
:102220003342a8000080fa00000006000000fa0017
:1022300031e2a9003342a9000080fa000000060044
:102240000000fa0000002100a109210011009800ff
:1022500000002100a10921000108780000002100f0
:10226000a00090000110a0002100980000002100b3
:10227000a00090000100a1002100980000002100b2
:102280008040eb0061409800700f2000a010880093
:1022900000002800b01088001822ef000648a900ae
:1022a0002648a8000080fa00000006000200fa009c
:1022b00000002100e0409000014f78001e407800af
:1022c0000080fa00000006000000fa006080800034
:1022d00066004000608088000ad0bf000040e9002e
:1022e0000af0b7000ad0bf000004e00003003a0083
:1022f00040002000408088000200370010002000cd
:10230000408088000080fa00000006000200fa0009
:10231000000f78001642a800708080002000900016
:102320000000e00003003200708080002000900078
:102330001e0878000830ef000080fa000000060058
:102340000800fa00000f7800214798002207980043
:102350003307980000002100200090006100600019
:102360000000e0000a003a00ae0190002e4190000b
:102370009e007800600a2100770007003e0190006f
:10238000610a210010c0b3001f00070003003700de
:102390003e0090008000eb00010878000080fa0009
:1023a000000006000800fa00000f7800214798009e
:1023b00022079800330798000000210020009000b9
:1023c000610060000000e0000a003a00ae019000e9
:1023d0002e4190009e007800000a21004600070070
:1023e0003e019000010a210010c0b3000600070062
:1023f000030037003e0090008000eb0001087800e9
:102400000080fa00000006000600fa00004f780085
:10241000110798002207980000002100200090007a
:10242000610060000000e0002e003a002e009000e5
:102430001100200001087800000021001000780041
:102440009e0090001100980000002100100078000c
:102450001e4878000000210010007800ae009000b7
:10246000210098000000210010007800e6004000e4
:102470000000210001087800000021009000780091
:10248000000a2100808f500003003a000000210064
:10249000a10921000108780000002100a00090009f
:1024a0000110a10021009800000021009000900080
:1024b0000000210010007800808f500004003a00d6
:1024c00000002100a00090000100a0002100980061
:1024d000408080000000e00005003a000648a800a7
:1024e000030037002e0090008000eb000108780008
:1024f0000080fa00000006000800fa00000f7800d3
:102500001107980042479800330798003e0090005a
:1025100000004000800078001e007800010878006c
:102520001e00780010007800800078000100a000f4
:102530001e007800010878001e007800ce40900050
:10254000214098001e0078009e0090002100980015
:102550000080fa00000006000800fa00000f780072
:102560001107980042479800330798003e009000fa
:1025700000004000800078001e007800010878000c
:102580001e007800ce409000214098001e00780088
:102590009e009000210098000080fa0000000600d4
:1025a0000000fa000000210020009000620060009e
:1025b00000f0a7000000ea000000ea004f00de0083
:1025c000004078000080fa00000006000000fa00d9
:1025d00000002100200090006100600000f0a700d2
:1025e0000000ea000000ea004f00de000040780032
:1025f0000080fa00000006000000fa0080012100bf
:10260000c10a21001100980080012100c10a2100a7
:102610000108780080012100a00090000110a000b6
:102620002100980080012100a00090000100a1007d
:1026300021009800800121008040eb00614098005b
:10264000700f200020108800000028003010880043
:102650000822ef000228a9002228a8000080fa0022
:10266000000006000200fa0080012100e040900016
:10267000014f78001e4078000080fa00000006003c
:102680000000fa0020818000660040002081880060
:1026900022d0bf000040e90022f0b70022d0bf00e6
:1026a0000004e00003003a004000200000818800a0
:1026b0000200370010002000008188000080fa002e
:1026c000000006000200fa00000f78000642a80091
:1026d00030818000200090000000e0000300320004
:1026e00030818000200090001e0878002030ef002c
:1026f0000080fa00000006000800fa00000f7800d1
:102700002147980022079800330798008001210094
:1027100020009000610060000000e0000a003a0024
:10272000ae0190002e4190009e007800800b2100a9
:10273000770007003e019000810b210010c0b3001c
:102740001f000700030037003e0090008000eb00f0
:10275000010878000080fa00000006000800fa0076
:10276000000f78002147980022079800330798004f
:102770008001210020009000610060000000e00066
:102780000a003a00ae0190002e4190009e007800b1
:10279000200b2100460007003e019000210b210084
:1027a00010c0b30006000700030037003e00900091
:1027b0008000eb00010878000080fa0000000600ad
:1027c0000600fa00004f78001107980022079800d1
:1027d0008001210020009000610060000000e00006
:1027e0002e003a002e009000110020000108780011
:1027f00080012100100078009e00900011009800d8
:1028000080012100100078001e487800800121001e
:1028100010007800ae009000210098008001210097
:1028200010007800e60040008001210001087800d7
:102830008001210090007800200b2100808f500043
:1028400003003a0080012100c10a2100010878003c
:1028500080012100a00090000110a100210098003b
:10286000800121009000900080012100100078007c
:10287000808f500004003a0080012100a0009000e9
:102880000100a00021009800008180000000e0000d
:1028900005003a000228a800030037002e0090002f
:1028a0008000eb00010878000080fa0000000600bc
:1028b0000800fa00000f78001107980042479800be
:1028c000330798003e009000000040008000780030
:1028d0001e007800010878001e00780010007800c3
:1028e000800078000100a0001e0078000108780038
:1028f0001e007800ce409000214098001e00780015
:102900009e009000210098000080fa000000060060
:102910000800fa00000f780011079800424798005d
:10292000330798003e0090000000400080007800cf
:102930001e007800010878001e007800ce4090004c
:10294000214098001e0078009e0090002100980011
:102950000080fa00000006000000fa00800121005b
:10296000200090006200600000f0a7000000ea0074
:102970000000ea004f00de00004078000080fa000e
:10298000000006000000fa008001210020009000f5
:102990006100600000f0a7000000ea000000ea000b
:1029a0004f00de00004078000080fa0000000600c2
:1029b0000000fa003c0407005d000700eb0207007e
:1029c0009d010700542ea800200d210011c0b30066
:1029d0000148780014010700600c210011c0b30009
:1029e00001487800700c21008040eb00014878001d
:1029f000800c21008040eb0001487800900c210001
:102a00008040eb0001487800200d210011c0b30088
:102a1000014878000401070000382c00911c2000b8
:102a200030040700600c21008040eb000148780072
:102a3000700c210011c0b30001487800800c210007
:102a40008040eb0001487800900c21008040eb00b2
:102a500001487800200d210011c0b3000148780022
:102a6000f100070000382c00911c20001d04070015
:102a7000600c21008040eb0001487800700c2100c0
:102a80008040eb0001487800800c210011c0b300a9
:102a900001487800900c21008040eb00014878004c
:102aa000200d210011c0b30001487800de000700ae
:102ab00000382c00911c20000a040700600c210043
:102ac0008040eb0001487800700c21008040eb0052
:102ad00001487800800c21008040eb00014878001c
:102ae000900c210011c0b30001487800200d210096
:102af00011c0b30001487800cb00070000382c005b
:102b0000911c2000f7030700b2ff37000200fa0013
:102b1000000f7800010037001e0fe9001e0078004a
:102b20000000e000fcff3a000080fa000000060010
:102b30000000fa00020007000080fa000000060012
:102b40000000fa00e00b21008040eb000148780013
:102b5000f00b21008040eb0001487800000c2100c0
:102b60008040eb0001487800100c21008040eb0011
:102b700001487800200c21008040eb0001487800db
:102b8000300c21008040eb0001487800400c21000f
:102b90008040eb0001487800500c21008040eb00a1
:102ba00001487800600c21008040eb00014878006b
:102bb000700c21008040eb0001487800800c21005f
:102bc0008040eb0001487800900c21008040eb0031
:102bd00001487800a00c21008040eb0001487800fb
:102be000b00c21008040eb0001487800c00c2100af
:102bf0008040eb00014878000080fa0000000600e9
:102c00000000fa00003a80000080fa000000060090
:102c10000200fa00faff0700000f78001e0078009b
:102c2000240007000004e000020032000000280039
:102c3000710007001e0078002a0007000004e00071
:102c400002003200000024006b0007001e00780024
:102c5000320007000004e0000200320000202000e3
:102c6000650007001e0078003a0007000004e0003d
:102c700002003200000820005f0007001e007800fc
:102c8000420007000004e0000200320000042000bf
:102c9000590007001e0078004a0007000004e00009
:102ca0000200320000012000530007000080fa00fb
:102cb000000006000400fa00100798000040eb0036
:102cc000004f78001e0090000000e00002003d0070
:102cd00010c0b300004f78001e4078000080fa005a
:102ce000000006000400fa00100798000040eb0006
:102cf000004f78009e0090000000240000806000db
:102d00000000e0000200320010c0b300004f780065
:102d10001e4078000080fa00000006000400fa005f
:102d2000100798000040eb00004f78009e009000d4
:102d300000202000008060000000e000020032005f
:102d400010c0b300004f78001e4078000080fa00e9
:102d5000000006000400fa00100798000040eb0095
:102d6000004f78009e009000000820000080600066
:102d70000000e0000200320010c0b300004f7800f5
:102d80001e4078000080fa00000006000400fa00ef
:102d9000100798000040eb00004f78009e00900064
:102da00000042000008060000000e000020032000b
:102db00010c0b300004f78001e4078000080fa0079
:102dc000000006000400fa00100798000040eb0025
:102dd000004f78001e009000700060000000e000ce
:102de0000200320010c0b300004f78001e4078008f
:102df0000080fa00000006000200fa00000f7800d0
:102e00009e80ea00003a800000806000003a88005e
:102e10000080fa00000006000000fa004027ef00e2
:102e20000080fa00000006000400fa00200d2100d6
:102e3000104078000004e000120032000040eb0077
:102e400015000700000f78000000000010c0b3005c
:102e50001100070010079800000000001e009000fd
:102e6000004078000041eb0011c0b300aa00070049
:102e70001e0078000040780012c0b30011c0b300fb
:102e8000a5000700200d21008040eb0001487800dc
:102e90000080fa00000006000400fa0020479800b5
:102ea0002e4090000004e0002b003a00e00b2100cf
:102eb000104078008080fb00000c2100104078005a
:102ec0000081fb00200c2100104078008081fb0075
:102ed000400c2100104078000082fb00500c2100c3
:102ee000104078000080fb0000004000000042001d
:102ef0000000400000027800300c210010407800f3
:102f00000080fb0000004200000040000080410003
:102f10000000400080017800100c21001040780073
:102f20000080fb00008041000000400000004100e4
:102f30000000400000017800f00b210010407800f4
:102f40000080fb00000041000000400000804000c5
:102f5000000f780025003700600c21001040780039
:102f60008080fb00800c2100104078000081fb0075
:102f7000a00c2100104078008081fb00c00c2100d3
:102f8000104078000080fb00000040000002780044
:102f9000b00c2100104078000080fb0000004200cf
:102fa00000004000008041000000400080017800e7
:102fb000900c2100104078000080fb000080410050
:102fc00000004000000041000000400000017800c7
:102fd000700c2100104078000080fb0000004100d0
:102fe0000000400000804000000f78001e007800c4
:102ff0000080fa00000006000200fa00e0ae28009f
:1030000001202000920180008101780003d0fe00a1
:10301000000078001040780002d0fe00004f7800d9
:10302000000000000080fa00000006000000fa0026
:103030000080fa00000006000000fa00012ea9003e
:10304000052ea90021aea90025aea900018ea90078
:10305000058ea900016ea900056ea800056ea900e5
:103060000080fa00000006000400fa0020479800e3
:1030700031479800056ea9000040eb00004f780032
:103080001f0037003e409000e14f50000c003a0016
:103090002e4090008080fb001e80fb000008dd00b9
:1030a000104798001e4090000004e00002003d0020
:1030b000058ea80010003700058ea9000e0037000d
:1030c0002e4090008080fb001e80fb000088de0008
:1030d000104798001e4090000080fb0061006000d7
:1030e000004078000004e00002003200058ea800d5
:1030f00001003700058ea900360007001e4fe800ca
:103100001e407800e74f5000deff36003c0007000d
:103110000080fa00000006000600fa002047980030
:1031200031479800424798000040eb00004f78007c
:103130001f0037003e409000e14f50000c003a0065
:103140002e4090008080fb001e80fb000008dd0008
:10315000104798001e4090000004e00002003d006f
:10316000058ea80010003700058ea9000e0037005c
:103170002e4090008080fb001e80fb000088de0057
:10318000104798001e4090000080fb006100600026
:10319000004078000004e00002003200058ea80024
:1031a00001003700058ea9000a0007001e4fe80045
:1031b0001e407800e74f5000deff36004e40900082
:1031c000e14f500001003a000d0007000080fa00b6
:1031d000000006000000fa00052ea8009001200063
:1031e000010020003f020700052ea90090012000e9
:1031f000010020003b0207000080fa0000000600ea
:103200000000fa0025aea800d00720000100200031
:103210003402070025aea9000080fa000000060075
:103220000200fa00000f7800010037001e0fe900cd
:103230001e0078000000e000fcff3a000080fa0069
:10324000000006000000fa001821ef003000200006
:10325000e00888001421ef00f0082d00d008880055
:1032600080002800f0088800608280000000e000f4
:1032700002003a00009c2100440007000388a900d6
:103280002388a800000d21008040eb000148780051
:103290000080fa00000006000400fa00008fbe0063
:1032a0001e007800d00888001e0078009e00900064
:1032b0004008de0000007800e00888000080fa0086
:1032c000000006000400fa000080eb008080eb00a4
:1032d000008fbe00e00880008000eb00c001dd0030
:1032e00002002000d00880008000eb00001f710069
:1032f000019771001e0078009e0090000080fa0087
:10330000000006000400fa00008fbe001e007800d6
:103310009e0090004008de0000007800b0088800a1
:103320001e007800a00888000080fa000000060057
:103330000800fa000080eb008080eb00008fbe00e8
:10334000a108800021079800b1088000310798008b
:103350003e0090008000eb00c001dd000200200074
:103360002e0090008000eb00001f7100019771009b
:103370001e0078009e0090000080fa000000060009
:103380000000fa000080fa00000006000200fa00c7
:10339000000f78002388a9009e00780061828800d1
:1033a0002388a8000080fa00000006000000fa0050
:1033b000000d21008040eb00014878002388a80020
:1033c0001fe1a8000080fa00000006000000fa00db
:1033d0001fe1a9002388a9000080fa000000060070
:1033e0000200fa00000d2100104f78001e40780006
:1033f0000004e00003003200000d21008040eb00db
:10340000014878001e4078000080fa0000000600a5
:103410000000fa00100d2100104078000080fb0031
:103420000080fa00000006000000fa00100d2100e4
:103430008040eb00014878000080fa0000000600a0
:103440000000fa000621ef00e07321006008880008
:103450000000280080088800a08280000000e000b2
:1034600002003a0080a721003000070000e8a90010
:1034700020e8a800e00c21008040eb000148780023
:103480000080fa00000006000200fa00000f780039
:103490009e00780061088800e00c21008040eb006d
:1034a000014878000080fa00000006000000fa00e1
:1034b000600880000080fa00000006000200fa00a8
:1034c000000f78009e00780031088800e00c210091
:1034d0008040eb00014878000080fa000000060000
:1034e0000000fa00300880000080fa0000000600aa
:1034f0000000fa00207380004600de00614060009a
:103500000004a200614060000080fb0061006000d8
:103510004600dd00217380000160a1000100700001
:10352000207388000080fa00000006000200fa0004
:10353000000f780020e8a9009e007800a182880092
:1035400020e8a8000080fa00000006000000fa0051
:10355000e00c21008040eb000148780020e8a80042
:1035600011e1a8000080fa00000006000000fa0047
:1035700011e1a90020e8a9000080fa00000006007f
:103580000200fa00e00c2100104f78001e40780085
:103590000004e00003003200e00c21008040eb005a
:1035a000014878001e4078000080fa000000060004
:1035b0000000fa00f00c2100104078000080fb00b1
:1035c0000080fa00000006000000fa00f00c210064
:1035d0008040eb00014878000080fa0000000600ff
:1035e0000000fa0000802000207088000084200085
:1035f000a07088009000200020718800342eef0019
:10360000442eef0010002000a0728800642eef000e
:103610003051200000708800d06323008070880043
:1036200020ff2100007188000016200080718800b2
:1036300000002f0000728800502eef00602eef0077
:103640000c2eef001c2eef002c2eef003c2eef0076
:103650004c2eef005c2eef006c2eef000a2eef00d8
:1036600000202100d0708800003c200050718800ac
:1036700000062000d07188004a2eef005a2eef007d
:103680000004200050738800062eef00162eef0075
:10369000262eef00362eef00462eef00562eef00be
:1036a0000004200030738800300020007070880013
:1036b0001e2eef00008020007071880000002f0097
:1036c00070728800113a8000f00b200000816000c9
:1036d00060042000710520002374200080497800d8
:1036e00081497800824978003136800000f82f0047
:1036f0008080600050022000010070003036880099
:103700002136800000f82f0080806000a002200099
:10371000010070002036880041348000f00f2c003a
:10372000008060000080a0004034880021348000c8
:1037300000fc2f00008060003000b30020348800bf
:10374000103a8000000178000260a00060042000b0
:103750007105200023742000804978008149780099
:10376000824978000080fa00000006000000fa009c
:1037700001438000f08f2f00008060000080a000d7
:103780000043880071428000f0ff28000080600044
:1037900000c0a0007042880071428000f08f2f00ae
:1037a000008060000080a00070428800014380001b
:1037b000f0f82f00008060000040a0000043880067
:1037c0003142800080ff2f00008060000000a000d8
:1037d0003042880021428000f0ff28000080600015
:1037e00000c0a0002042880041428000f0f82f0075
:1037f000008060000040a0004042880041428000fc
:1038000080ff2f00008060000000a0004042880080
:10381000c1428000f08f2f00008060000080a00077
:10382000c0428800c1428000f0f82f000080600094
:103830000040a000c042880061428000f0ff2800e4
:103840000080600000c0a0006042880071428000db
:1038500080ff2f00008060000000a0007042880000
:1038600011428000f0ff28000080600000c0a0002e
:0c387000104288000080fa0000000600f2
:020000040000fa
:10387c0050100000020000008000000056100000f4
:10388c002000000080000000521000000200000028
:10389c0082000000ffff0000761000001200000004
:1038ac0080000000301000000e00000080000000be
:1038bc008810000012000000800000003e10000084
:1038cc000e000000800000009a10000012000000a2
:1038dc0080000000001000001800000080000000b4
:1038ec00ac10000012000000800000001810000056
:1038fc001800000080000000ce1000000200000044
:10390c008000000054100000020000008000000045
:10391c00d010000002000000800000004c100000dd
:10392c000400000080000000d21000000200000023
:10393c0080000000be10000010000000800000009d
:04394c000000000077
:020000040000fa
:103950000000fa0000142300203a88004827ef00f6
:103960004e27ef0000032000303a88006027ef0068
:103970006227ef006427ef006627ef006c27ef0057
:103980003200200080072000a109200033742000ad
:10399000804978008149780082497800120020002f
:1039a0006004200071052000237420008049780005
:1039b000814978008249780000000000103a8000b8
:1039c000610060000000e000fcff3a000000000021
:1039d000113a800000022000008060000000e0003a
:1039e000fbff32000080fa00000006000000fa0031
:1039f00000002800001988002223ef001003200097
:103a0000201988002823ef002e23ef003023ef0039
:103a10003223ef002623ef0040d1210005000700ec
:103a20000080fa00000006000000fa000080fa00a2
:103a3000000006000200fa00000f78001e00780067
:103a4000808288000080fa00000006000000fa0072
:103a50000140800000002200008060000000e000c3
:103a600006003200808280000000e0000200320088
:103a7000808280000000010001a8a9000080fa00f7
:103a8000000006000200fa00000f7800210280000a
:103a9000200f2000008060001e00700020028800bf
:103aa0000080fa00000006000000fa00ccfe0700cb
:103ab000a7ff07002dff070059f80700cefa0700ff
:103ac000cff60700c9ff0700defd07005cfe070018
:103ad000dbf9070000022000eaff07000080fa007f
:043ae00000000600dc
:020000040000fa
:103ae400f03fb1000180b10006003500ee0309008b
:103af40000000000403fb1000180b100fbff3d0029
:103b04001000b000203fb000020035000080090022
:083b14000000000000000600a3
:020000040000fa
:103b1c000200fa00000f78009e0078009182880065
:103b2c00ffff37000000fa006005210080077800d5
:103b3c00e0062100000188000080fa000000060069
:020000040000fa
:020000040005f5
:045fe000cfff0000ef
:020000040000fa
:020000040005f5
:045fe400ffff0000bb
:020000040000fa
:020000040005f5
:045fe8007fff000037
:020000040000fa
:020000040005f5
:045fec0079ff000039
:020000040000fa
:020000040005f5
:045ff00078ff000036
:020000040000fa
:020000040005f5
:045ff400ffffff00ac
:00000001FF
